:020000040000FA
:10000000E83300202D020000390200003B0200000E
:100010003D0200003F02000041020000000000001D
:10002000000000000000000000000000430200008B
:1000300045020000000000004702000049020000E5
:100040004B0200004B0200004B0200004B0200007C
:100050004B020000794600004B0200004B020000FA
:100060004B0200004B0200004B0200004B0200005C
:100070004B0200004B0200004B0200004B0200004C
:100080004B0200004B0200004B0200004B0200003C
:100090004B0200004B0200004B0200004B0200002C
:1000A0004B0200004B0200004B0200004B0200001C
:1000B0004B0200004B0200004B0200004B0200000C
:1000C0004B0200004B02000000F002F800F070F854
:1000D0000AA090E8000C82448344AAF10107DA45A3
:1000E00001D100F065F8AFF2090EBAE80F0013F085
:1000F000010F18BFFB1A43F001031847B457000063
:10010000D45700000A444FF0000C10F8013B13F0E4
:10011000070408BF10F8014B1D1108BF10F8015B60
:10012000641E05D010F8016B641E01F8016BF9D153
:1001300013F0080F1EBF10F8014BAD1C0C1B09D1AA
:100140006D1E58BF01F801CBFAD505E014F8016B1C
:1001500001F8016B6D1EF9D59142D6D370470000AE
:100160000023002400250026103A28BF78C1FBD8C0
:10017000520728BF30C148BF0B607047642900F0A8
:10018000C581752900F0C281782900F02682732983
:1001900000F05084002070471FB59DE8030000F078
:1001A00067FB00F087FC1FBD10B500F0ECFC10BD34
:1001B00000F056FD1146FFF7EFFF04F085FA00F05E
:1001C00033FE03B4FFF7F0FF03BC00F06BFE00004A
:1001D000124C134D256013484FF0010101604FF0A0
:1001E000020080F31488104842680F4802600E4BEA
:1001F000186887884FF0100847EA08078780D0F80A
:1002000000C00CF1240CBCE8FF008CF30988AE465A
:1002100087F3038862B6304700BF000020ED00E09E
:100220000000F0F050000020180000200A4880472D
:100230000A4800470A480047FEE7FEE7FEE7FEE7F8
:10024000FEE7FEE7FEE7FEE7FEE7FEE705480649B4
:10025000044A064B70470000EB020000C900000092
:100260003B020000E8310020E8330020E8310020A4
:100270002DE9F04180463C48012606613B4900BF1C
:10028000D1F89422002AFBD0394FC0213960394976
:100290000968890708D43749091F0968F02242EA2A
:1002A0001141354A82F85612002101643148001D7F
:1002B00005684FF08054D4F8F00104F5D07401685B
:1002C00028468847206D2946426840469047206D61
:1002D0008168284688472068C168022088474020F6
:1002E000386026480660BDE8F08170B52448D0F833
:1002F0001C43601C00D1002400F09FF81F4800251B
:10030000103805601A490120C8651E49C1F8080265
:100310000007D0F8F001806C80471B48D0F88001BE
:1003200028B11A48D0F800012046FFF7A1FF18486D
:10033000C0F88C511749886C174A1040174A10436F
:10034000886417484168C1F30131012906D1416829
:10035000144A114041F40032426041601248C168C1
:100360000029FCD170BD00000010094000002243AC
:1003700000600C40B03F00500060084094046042B0
:1003800000100050002004430000284300002043D8
:100390000020084000200340FFFF00F0000039016A
:1003A00000000940FFFFFCFC0000684226494FF0B6
:1003B000FF30D1F81823C2F30F32A2F539439A3B2C
:1003C00005D1D1F81803000F0B2801D00020704789
:1003D000032070471D48D0F8D40100F00E0070478C
:1003E0001948D0F89402C0F30240062801D34FF018
:1003F000FF30704710B54FF0FF34FFF7D7FF1249B9
:10040000D1F894120328C1F3033102D1092900D194
:100410000824204610BD30B50B484FF0FF35D0F80A
:10042000A000C4B2802C00D30024FFF7BFFF032834
:1004300001D10A3465B2284630BD00B5FFF7B6FFDA
:10044000032800D0FEE700BD001000500020084047
:1004500070B50446051F00F0EFF90068002C14BFCA
:10046000446870BD002C18BFAC423CBF2046646895
:10047000F8D301680A18AA4218BF456003D12A6858
:1004800005461144016028684119A1421CBF6C60F7
:1004900070BD6168696021680844286070BD000013
:1004A0000FB4044910B503AA029800F0C7FA10BCB3
:1004B0005DF814FBDC30002070B50C460546012ABF
:1004C00005D02878800600D5EA69002302E00123E0
:1004D00005E05B1C934202D2E05C0028F9D1A869D8
:1004E000E618C01AA861286A184428622846AFF3A3
:1004F000008004E0D5E9012114F8010B9047B442D3
:10050000F8D32846AFF3008070BD00002DE9F0411C
:100510000646002410687529314616A510D0AFF3A1
:100520000080002802DA404213A507E031688A07FC
:1005300001D512A502E0490704D511A5012401E067
:10054000AFF3008000210A2206F1240709E0B0FB86
:10055000F2FCB0FBF2F302FB1C003030785418467A
:10056000491C0028F3D123462A463046BDE8F04115
:1005700000F0DCB9000000002D0000002B0000009E
:1005800020000000F0B40D460188090502D5214C79
:100590007C4402E01F4C7C440E34002100F1240610
:1005A00008E002F00F071209E75D42EA03721B0937
:1005B0007754491C52EA0307F3D10278002312074B
:1005C00004D5702D06D009B1022311342246F0BCA7
:1005D00000F0ACB901231034F8E770B504460D46BD
:1005E00021461068AFF30080024629462046BDE848
:1005F00070400023C6E7D21D22F00703D3E9002391
:10060000C0E70368126843F0200303600823C36156
:100610000023B7E7915200002DE9F05F89460446B8
:100620004FF0000ADFF874B1FB44C0F820A0204668
:10063000E1688847002874D0252806D0D4E9012134
:100640009047206A401C2062F1E700265F46204662
:10065000E16888472028054607DB312D05D2781947
:1006600010F8200C08B10643F1E7B00701D526F0D9
:100670000406C4F81CA00027C4F818A02A2D09D02D
:10068000284604F007F838B304EB8708303DC8F873
:10069000185019E059F8041B204604EB87029161B9
:1006A000E1688847012F054618D1E069002820DA63
:1006B00026F020061DE0D8F8180000EB800005EBBE
:1006C00040003038C8F818002046E16888470546E1
:1006D00003F0E0FF0028EED1012F0AD02E2D08D123
:1006E0002046E16888477F1C0546022F46F0200619
:1006F000C4DBA069002803DA404246F00106A0618D
:10070000F00701D026F010066C2D0BD0682D09D013
:100710004C2D39D06A2D35D0742D35D07A2D33D06B
:1007200016E038E0E1682F4620468847B842054683
:1007300009D16C2F26D04FF48060E1680643204633
:100740008847054604E06C2F1AD04FF480700643AA
:100750000DB3A5F14100192802D8203546F40066F2
:100760004A462946204626604E46FFF707FD80B1DF
:1007700001280BD0F61D26F0070000F1080956E706
:100780004020E4E78020D8E70020D6E706F10409FE
:100790004DE7284652E7206ABDE8F09F215200004D
:1007A0004FF000020429C0F0128010F0030C00F09A
:1007B0001B80CCF1040CBCF1020F18BF00F8012B18
:1007C000A8BF20F8022BA1EB0C0100F00DB85FEAE6
:1007D000C17C24BF00F8012B00F8012B48BF00F8B2
:1007E000012B70474FF0000200B513469446964621
:1007F000203922BFA0E80C50A0E80C50B1F1200134
:10080000BFF4F7AF090728BFA0E80C5048BF0CC0E1
:100810005DF804EB890028BF40F8042B08BF70473F
:1008200048BF20F8022B11F0804F18BF00F8012BB1
:100830007047704770477047004870478C31002000
:10084000704770477047704738B504460A46002025
:100850006946AFF30080002808BF38BD0246009902
:10086000204600F008F9012038BD012000F0BEB993
:10087000F8B5AFF30080054600200C46102000BFFD
:100880000646A819A0420DD9324669460020AFF3AA
:100890000080070008BF00F0A9F90098A04218BF27
:1008A0000546C419FFF7C8FF05600746F01D20F094
:1008B00007004619284600F0D7F8B44208BFF8BD33
:1008C000A21B31463868BDE8F84000F0D4B870B5D6
:1008D0000646FFF7B1FF056806F10B0020F007049C
:1008E000B4429CBF002070BD2B466A68BAB1106844
:1008F000A04210D304F1080188423CBF5068586000
:1009000007D35168101941601168091B01605860D4
:100910001460101D70BD13465268002AE7D12146AD
:100920002846FFF791FF0028DED170BD2DE9F04782
:100930000D4699469246044600F12408016888064F
:1009400004D5E06921F01001216000E00120A842F7
:1009500001DD471B00E00027A1697A1902EB0900BD
:10096000081AA0612078C00602D42046AFF30080A8
:10097000002608E0D4E901211AF806009047206A11
:10098000401C761C20624E45F4DB2078C0060AD558
:100990002046AFF3008006E0D4E9012130209047E3
:1009A000206A401C2062381EA7F10107F4DC07E032
:1009B000D4E9012118F805009047206A401C206204
:1009C000281EA5F10105F3DC2046AFF30080207856
:1009D000000602D50220BDE8F0870120FBE70000F9
:1009E00001694A1C02610878704700B58FB0CDE9F3
:1009F00001310021059105497944CDE903101146E3
:100A00006846FFF709FE0FB000BD0000E5FFFFFFDD
:100A100010B5436913B1AFF3008001E0FFF74CFD5F
:100A2000012010BD127800F124010A7000224A70E2
:100A30000122EDE711684FF0FF32E9E7074B70B58F
:100A40000D467B44FFF7D1FF0446284600F02DF801
:100A500010B14FF0FF3070BD204670BD5F3C00000C
:100A6000004870478431002000210160C0E9011076
:100A7000704710207047034640688C46002818BF16
:100A800088423CBF03464068F8D31868184488423F
:100A900007D00CF1030020F00700001D411A521A84
:100AA0000146081D0A60FFF7D3BC007B00F0800000
:100AB0007047000010B542485421FFF793FE4148AB
:100AC0005421FFF78FFE40485421FFF78BFE3F492A
:100AD0003B483C4A3F4B08603D490A603A4919602F
:100AE000531C0365481C1065012008653B48344AC7
:100AF00039A1784400F0FCF820B9384878440A3825
:100B000000F0A0F937482F4A35A1784400F0F0F8FA
:100B100020B9344878440A3800F094F932482A4A17
:100B20002FA1784400F0E4F820B92F4878440A381F
:100B300000F088F940232248DC000021224600F022
:100B4000B4F820B125487844543800F07BF91D48AA
:100B500022464023002100F0A8F820B12148784423
:100B6000543800F06FF9184822461023002100F095
:100B70009CF8002806D01C487844BDE81040563840
:100B800000F060B910BD104870B5006D20F0010490
:100B90000B4800F023F90B4800F020F90A4800F058
:100BA0001DF909E0206D20F00105204600F016F93E
:100BB0002046FFF74DFC2C46002CF3D170BD000001
:100BC00088300020DC3000203031002094010020EB
:100BD000980100209C01002072000000684D000078
:100BE00077000000544D0000404D000010B500F0AB
:100BF00031F9BDE8104000F020B90EB5CDE9000193
:100C000000F080FA029069460120ABBE0EBD08B527
:100C1000694600900220ABBE08BD1FB58DE80700F5
:100C200069460520ABBE04B010BD1FB58DE80F00AE
:100C300069460620ABBEF6E708B569460090092074
:100C4000ABBE08BD1CB5CDE9000169460A20ABBEAC
:100C50001CBD704708B5694600900C20ABBE08BDAE
:100C60007546FFF7FDFEAE4605006946534620F087
:100C70000700854618B020B5FFF7E8FABDE8204028
:100C80004FF000064FF000074FF000084FF0000B48
:100C900021F00701AC46ACE8C009ACE8C009ACE8FB
:100CA000C009ACE8C0098D46704770B5C468A50797
:100CB00013D0650211D4B2F5807F09D0B2F5007F60
:100CC00006D0B2F5806F08D1012300F1240106E0BF
:100CD0005D1E6FF07F46B54201D3012070BD0161FA
:100CE000C361416024F470611143C160002070BD94
:100CF0002DE9F0410C4607461646104600F06EF806
:100D00002078611C61280AD0722802D077283CD153
:100D100002E00125002405E00225042402E0082465
:100D200048F2020511F8010B2B2806D0622809D0E1
:100D300011F8010C74280AD00BE045F0030544F0CB
:100D40000204EFE745F0040544F00104EAE744F04B
:100D5000100438462146FFF750FF411C15D00021F2
:100D6000316171604FF40071F560F16170612007CD
:100D700004D530460222002100F09CF8306D40F08E
:100D8000010030653046BDE8F0810020FBE72DE929
:100D9000F0410D460646104C206DC10704D04108B5
:100DA00004D020F00104F7E722460EE05420FFF7BC
:100DB0008EFD07000ED0206D47F00101084354213D
:100DC00020653846FFF70EFD3A4629463046BDE815
:100DD000F0418DE70020D6E7883000202DE9F0476C
:100DE00004464FF000094FF0FF37C568D4E9048688
:100DF000A80707D0204600F00DF93046FFF707FF9F
:100E0000002802DA3846BDE8F087280502D54046BA
:100E1000FFF71EFB4C212046FFF7E4FC206D20F07D
:100E2000010020654846EEE710B50446AFF30080A8
:100E30002046BDE81040FFF7C4B9002801D000F0FB
:100E400031B8704710B500F043F9BDE81040FFF726
:100E5000F4BF000010B5012805D0002103A000F068
:100E60001DF9012010BD09A1F8E7000053494752C0
:100E7000544D454D3A204F7574206F66206865616A
:100E800070206D656D6F7279000000003A20486532
:100E90006170206D656D6F727920636F727275700D
:100EA0007465640001491820ABBEFEE7260002000D
:100EB000704700002DE9F041044616460D4647698B
:100EC000007B80072ED03846FFF7B6FE50BB3EB3FE
:100ED000012E02D0022E25D104E0204600F038F980
:100EE00005441DE03846FFF7B5FEE168002841F0F3
:100EF0001001E16005DA204600F058F80120BDE855
:100F0000F081C9030BD56268E16A914200D81146AD
:100F1000A26911442269891A814200DD084605440C
:100F2000002D01DA0220EAE7E16A6068E2688142A6
:100F300006D29103E06203D522F4003141F01002A1
:100F4000A6690027AE4213DCE16A814201D90B4653
:100F500000E0034603EB060C2369ACEB030CAC4545
:100F600006DD814201D98C4600E084469C4505D1CE
:100F7000A760276042F02000A5620DE0AD1BE66986
:100F8000AE1B8142A66000D90846C01A281A20600C
:100F90005819606022F0200003490840E0600020FA
:100FA00084F84870ABE70000BFCFD7FFC16821F4D9
:100FB000001141F08001C160002181600160704733
:100FC0002DE9F047814614460E464FF0FF3832486F
:100FD000D5685769054209D03846A169FFF732FE46
:100FE000002811DB2C48C0430540E5602B46324603
:100FF00049463846FFF711FEA16920F00042B21AB7
:1010000011440028A16103D02046FFF7CFFF4046DE
:10101000BDE8F08770B504460569C06A616888421A
:1010200000D80846E16821F42011E160C90312D517
:10103000A84208D02246411B2846FFF7C1FF10B145
:101040004FF0FF3070BD0020E562C4E90150E06858
:1010500020F48030E060002070BD10B50446C06808
:1010600020F02000E060A16AA06988420DD02046EF
:10107000FFF7D0FFE06820F4405040F01000E0603F
:10108000A06AA0612069E062606044F24001E0680B
:101090008843E06010BD00001000020070B50546F6
:1010A0000C460A2000E06D1C00F04BF835B12878A2
:1010B0000028F8D102E0641C00F043F814B1207855
:1010C0000028F8D1BDE870400A2000F03AB80000CE
:1010D00010B5014602A0FFF7E1FF012010BD00009E
:1010E00053494752545245443A20526564697265E7
:1010F00063743A2063616E2774206F70656E3A20C6
:101100000000000010B5431C02E010F8011B71B193
:101110008107FAD14FF0013202C88C1A8C4314EACD
:10112000C211F9D0C01A0A0603D0C01E10BDC01AE1
:1011300010BD0A0401D0801E10BD0902FCD0401E63
:1011400010BD08B569468DF800000320ABBE08BD90
:1011500010B50146C268900703D0900607D5886A8B
:101160000AE000F017F801210160881E10BD8B69AC
:10117000486818440B69C01A91F848301BB191F8BF
:101180004910401A10BD1103FCD50028FADD401E9D
:1011900010BD00000048704784310020EFF3058047
:1011A000704772B67047EFF3108072B67047EFF376
:1011B000108062B6704780F31088704716484FF071
:1011C000805101607047EFF3108C72B6134A1268B9
:1011D0001AB100B590475DF804EBEFF3098020E900
:1011E000F01F0F4D2E683060B7884FF0100827EAC7
:1011F0000807B7800A484068286087884FF01008C1
:1012000047EA080787800168B1E8F01F81F3098881
:101210008CF31088704700BF04ED00E054000020FC
:1012200018000020FF200349098801F4005101B98A
:1012300000207047C01008400448806C40F0010056
:101240000249886402480349486370470020084007
:1012500000400020001008401649896C41F001014F
:10126000144A916410B1012820D10FE01249096895
:1012700041F04001104AD03AC2F8D0101146D1F8DE
:10128000901041F04001C2F8901010E00A4909683E
:1012900041F08001084AD03AC2F8D0101146D1F886
:1012A000901041F08001C2F8901000E000BF00BF34
:1012B0007047000000200840D020024010B10128F3
:1012C00012D108E00A49096841F04001084A903A01
:1012D000C2F8901009E00649096841F08001044A0B
:1012E000903AC2F8901000E000BF00BF70470000C5
:1012F0009020024010B1012812D108E00A49096883
:1013000041F04001084AA03AC2F8A01009E006499D
:10131000096841F08001044AA03AC2F8A01000E038
:1013200000BF00BF70470000A02002400D48C06E03
:1013300040F001000B49C8660B48006B20F001002B
:101340000949086310200949C8600F2088602B20D4
:10135000054948621A2088627020C86240F2013054
:10136000086370470020084000100040001008404B
:1013700070B500244FF420511F48006801F097FE1B
:1013800005461DB91DA0FFF78BF804E020A0FFF76C
:1013900087F8012070BD04211748006801F00AFE9B
:1013A000044624B920A0FFF77BF80120F2E723A030
:1013B000FFF776F84FF44F70206024A02168FFF704
:1013C0006FF821460C48006801F047FE05463DB91C
:1013D00022A0FFF765F80021092001F0C3FB08E017
:1013E00022A0FFF75DF80121092001F0BBFB0120DD
:1013F000D0E70020CEE700008C0000206D656D7006
:101400006F6F6C20696E6974206F6B210A00000099
:101410006D656D706F6F6C20696E697420666169AF
:101420006C6564210A0000006D656D20616C6C6F55
:1014300063206661696C6564210A00006D656D203A
:10144000616C6C6F63206F6B0A0000002A705F6E26
:10145000756D203D2025640A000000006D656D203B
:1014600066726565206F6B210A0000006D656D2056
:1014700066726565206661696C6564210A0000001A
:1014800010B501210EA0FFF70BF8642304220121FF
:10149000134801F08BF90446012C08D1214611A014
:1014A000FEF7FEFF0021012001F05CFB06E015A025
:1014B000FEF7F6FF0121084601F054FB10BD0000C5
:1014C0004578616D706C655F4576656E74207761F7
:1014D0006974206576656E742030782578200A005E
:1014E000242E00204578616D706C655F4576656ED1
:1014F000742C72656164206576656E74203A30786C
:1015000025780A004578616D706C655F4576656E7B
:10151000742C72656164206576656E742074696DE3
:10152000656F75740A0000002DE9F04101F082F842
:101530008046B8F1000F03D041461BA0FEF7B0FF74
:1015400003F01EF804460D460022134662406B402D
:101550001A4303D021461BA0FEF7A2FFC82002F0C9
:10156000E1FD03F00DF80F460646002211467240D9
:1015700079400A4303D0314618A0FEF791FF321B91
:1015800067EB0500C83A70F1000006D30021052082
:1015900001F0E8FA0020BDE8F0810121052001F00A
:1015A000E1FA0120F7E700004C4F535F4379636C89
:1015B000655065725469636B476574203D202564EE
:1015C000200A00004C4F535F5469636B436F756E84
:1015D00074476574203D202564200A004C4F535FFA
:1015E0005469636B436F756E7447657420616674EC
:1015F00065722064656C6179203D202564200A00B5
:1016000010B58CB000241F4801900920ADF80800E7
:101610004FF4007007901CA008908020099002F001
:1016200075FE01A90BA802F06DFC044634B12146F9
:1016300018A0FEF735FF20460CB010BD1D480190E4
:1016400001A90AA802F05EFC04462CB121461AA0AA
:10165000FEF726FF2046EFE7302000231E4A052133
:1016600000901EA002F010F804461CB121461DA0F7
:10167000FEF716FF23A0FEF713FF02F021FF002064
:10168000DAE70000A957000073656E64517565754F
:1016900065000000637265617465207461736B316D
:1016A000206661696C6564212C6572726F723A25DF
:1016B000780A0000DD56000063726561746520746D
:1016C00061736B32206661696C6564212C6572728E
:1016D0006F723A25780A0000AC00002071756575BC
:1016E00065000000637265617465207175657565DC
:1016F000206661696C757265212C6572726F723A31
:1017000025780A00637265617465207468652071CC
:10171000756575652073756363657373210A0000D1
:1017200010B592B02C4801F0D5FD02F0EFFD242158
:1017300009A8FFF757F82948099029A010904FF4FD
:1017400034700F900520ADF8280009A9274802F051
:10175000D9FB04462CB126A0FEF7A2FE012012B050
:1017600010BD24216846FFF73DF82748009027A0C8
:1017700007904FF4347006900420ADF804006946D9
:10178000254802F0BFFB044624B124A0FEF788FEE2
:101790000120E4E702F094FE4FF4967002F0C2FCE0
:1017A0000D48006801F0C8FD1048006802F0FAFC1E
:1017B000044624B11FA0FEF773FE0120CFE71648B0
:1017C000006802F0EFFC044624B120A0FEF768FE9A
:1017D0000120C4E70020C2E7C40000206518000013
:1017E0004D7574657854736B31000000C80000209B
:1017F0007461736B31206372656174652066616921
:101800006C6564202E0A00007D1900004D7574651A
:101810007854736B32000000CC0000207461736B4D
:101820003220637265617465206661696C6564204D
:101830002E0A00007461736B312064656C657465F9
:10184000206661696C6564202E0A00007461736B08
:10185000322064656C657465206661696C6564201E
:101860002E0A000010B517A0FEF71AFE0A211F4825
:10187000006801F095FD04463CB91DA0FEF710FE7E
:101880001A48006801F030FE10BD2148844216D18C
:1018900020A0FEF705FE4FF0FF311448006801F06C
:1018A0007FFD04465CB928A0FEF7FAFD0F480068EA
:1018B00001F01AFE0021042001F054F9E4E700BF12
:1018C000E2E700007461736B312074727920746FE9
:1018D00020676574206D757465782C207761697454
:1018E000203130205469636B2E0A0000C4000020B0
:1018F0007461736B3120676574206D757465782031
:10190000675F546573746D757830312E0A0000007E
:10191000071D00027461736B312074696D656F750A
:101920007420616E642074727920746F206765740E
:1019300020206D757465782C207761697420666F3E
:1019400072657665722E0A007461736B312077615F
:10195000697420666F72657665722C676F74206D8E
:101960007574657820675F546573746D7578303170
:1019700020737563636573732E0A000010B50FA0A2
:10198000FEF78EFD4FF0FF311648006801F008FDAC
:1019900004461CB114A0FEF783FD10BD19A0FEF78C
:1019A0007FFD642002F0BEFB23A0FEF779FD0D4809
:1019B000006801F099FD00BFEFE700007461736BF0
:1019C000322074727920746F20676574206D75748D
:1019D00065782C207761697420666F726576657210
:1019E0002E0A0000C40000207461736B32204C4F3B
:1019F000535F4D757850656E64206661696C6564EF
:101A0000202E0A007461736B3220676574206D7537
:101A100074657820675F546573746D757830312014
:101A2000616E642073757370656E64203130302090
:101A30005469636B2E0A00007461736B3220726507
:101A400073756D656420616E6420706F73742074AB
:101A5000686520675F546573746D757830310A006E
:101A600010B515A0FEF71CFD0A212248006802F0FF
:101A70005DF8044624B91F48006802F0D7F810BD8D
:101A80001D48844216D11D48FEF70AFD4FF0FF3174
:101A90001848006802F04AF804465CB918A0FEF73E
:101AA000FFFC1448006802F0C1F80021032001F097
:101AB00059F8E4E700BFE2E74578616D706C655F57
:101AC00053656D5461736B3120747279206765744E
:101AD0002073656D20675F757353656D4944202CD5
:101AE00074696D656F7574203130207469636B7330
:101AF0002E0A0000D8000020070700026C580000E2
:101B00004578616D706C655F53656D5461736B31C1
:101B100020776169745F666F726576657220616EA9
:101B20006420676F742073656D20675F75735365FC
:101B30006D494420737563636573732E0A0000005A
:101B400010B50CA0FEF7ACFC4FF0FF311748006851
:101B500001F0ECFF044614B915A0FEF7A1FC142017
:101B600002F0E0FA22A0FEF79BFC1048006802F0A9
:101B70005DF810BD4578616D706C655F53656D549F
:101B800061736B3220747279206765742073656DA0
:101B900020675F757353656D4944207761697420D0
:101BA000666F72657665722E0A000000D80000200C
:101BB0004578616D706C655F53656D5461736B3210
:101BC000206765742073656D20675F757353656D5D
:101BD000494420616E64207468656E2064656C61A0
:101BE000792032307469636B73202E0A0000000084
:101BF0004578616D706C655F53656D5461736B32D0
:101C000020706F73742073656D20675F7573536503
:101C10006D4944202E0A000010B592B000243149CD
:101C2000002001F01DFF02F071FB242109A8FEF73E
:101C3000D9FD2D4809902DA010904FF440700F90C1
:101C40000520ADF8280009A92B4802F05BF90446ED
:101C50002CB12AA0FEF724FC012012B010BD2421D3
:101C60006846FEF7BFFD2B4800902BA007904FF46D
:101C7000407006900420ADF804006946294802F03F
:101C800041F9044664B128A0FEF70AFC1A4800682E
:101C900002F088FA10B12AA0FEF702FC0120DCE76E
:101CA00002F00EFC0F48006801F0C0FF0446282037
:101CB00002F038FA0B48006801F008FF0E4800688F
:101CC00002F070FA18B11EA0FEF7EAFB01241548D5
:101CD000006802F067FA18B11FA0FEF7E1FB0124CB
:101CE0002046BAE7D8000020611A00004D757465DF
:101CF0007854736B31000000D00000207461736B66
:101D00003120637265617465206661696C65642069
:101D10002E0A0000411B00004D7574657854736BEA
:101D200032000000D40000207461736B32206372B3
:101D300065617465206661696C6564202E0A000027
:101D40007461736B312064656C65746520666169CC
:101D50006C6564202E0A00007461736B3220646528
:101D60006C657465206661696C6564202E0A0000EC
:101D700010B58AB0274800F0E3FC04462CB126A039
:101D8000FEF78EFB01200AB010BD242101A8FEF74A
:101D900029FD2748019027A008904FF43470079040
:101DA0000520ADF8080001A9254802F0ABF804466B
:101DB00024B124A0FEF774FB0120E4E727A0FEF77E
:101DC0006FFB0121134800F09FFD044624B12DA0B4
:101DD000FEF766FB0120D6E70E4801682FA0FEF74C
:101DE0005FFB0C480068C1430A4800F095FC0948B5
:101DF00001682AA0FEF754FB1148006802F0D2F9EE
:101E0000044624B129A0FEF74BFB0120BBE70020CC
:101E1000B9E70000242E0020696E6974206576659C
:101E20006E74206661696C6564202E0A00000000F3
:101E3000811400004576656E7454736B31000000A8
:101E4000A40000207461736B206372656174652067
:101E50006661696C6564202E0A0000004578616D3A
:101E6000706C655F5461736B456E7472795F457613
:101E7000656E74207772697465206576656E74206E
:101E80002E0A00006576656E74207772697465208D
:101E90006661696C6564202E0A0000004576656EF7
:101EA000744D61736B3A25640A0000007461736BB2
:101EB0002064656C657465206661696C6564202EBC
:101EC0000A0000002DE9F0410024032632273246A3
:101ED0003946204801F0BEF905462DB11EA0FEF797
:101EE000DFFA0120BDE8F08121A0FEF7D9FA1948F8
:101EF00001F030F9044624B922A0FEF7D1FA0120FE
:101F0000F0E726A0FEF7CCFA4FF44F70206028A02F
:101F10002168FEF7C5FA21460E4801F03BF928A0DA
:101F20002168FEF7BDFA21460A4801F041F905464D
:101F30003DB92AA0FEF7B4FA0021082000F012FEF5
:101F400006E02BA0FEF7ACFA0121082000F00AFE03
:101F50000020C7E7302E00204D656D20626F78208D
:101F6000696E6974206661696C65640A000000002E
:101F70004D656D20626F7820696E6974206F6B21EA
:101F80000A0000004D656D20626F7820616C6C6FF7
:101F900063206661696C6564210A00004D656D20EF
:101FA000626F7820616C6C6F63206F6B0A000000B9
:101FB0002A705F6E756D203D2025640A00000000C8
:101FC000636C6561722064617461206F6B0A202A02
:101FD000705F6E756D203D2025640A004D656D2093
:101FE000626F782066726565206F6B210A000000C1
:101FF0004D656D20626F7820667265652066616947
:102000006C6564210A00000010B519A0FEF748FABB
:10201000052002F087F8044624B11BA0FEF740FA21
:10202000012010BD1EA0FEF73BFA2548006802F013
:10203000D5F9044644B123A0FEF732FA012100206D
:1020400000F090FD0120ECE725A0FEF729FA002121
:10205000084600F087FD1A48006802F0A3F820B196
:1020600028A0FEF71DFA0120DBE70020D9E70000D9
:10207000456E746572205461736B48692048616EC7
:10208000646C65722E0D0A0044656C6179205461A0
:10209000736B204661696C65642E0D0A00000000B8
:1020A0005461736B4869204C4F535F5461736B44A8
:1020B000656C617920446F6E652E0D0A000000008A
:1020C000DC00002053757370656E64205461736B7F
:1020D0004869204661696C65642E0D0A00000000A5
:1020E0005461736B4869204C4F535F5461736B525A
:1020F0006573756D6520537563636573732E0D0A83
:10210000000000005461736B48692064656C65745D
:1021100065206661696C6564202E0A0010B515A003
:10212000FEF7BEF9052001F0FDFF044624B117A01B
:10213000FEF7B6F9012010BD1AA0FEF7B1F922484A
:10214000006802F0F3F8044644B120A0FEF7A8F9B5
:102150000121002000F006FD0120ECE72148006885
:1021600002F020F820B120A0FEF79AF90120E2E762
:102170000020E0E7456E746572205461736B4C6F0C
:102180002048616E646C65722E0D0A0044656C61B6
:1021900079205461736B4C6F204661696C65642EC5
:1021A0000D0A00005461736B4869204C4F535F5413
:1021B00061736B53757370656E64205375636365EB
:1021C00073732E0D0A000000DC0000205265737549
:1021D0006D65205461736B4869204661696C656464
:1021E0002E0D0A00E00000205461736B4C6F2064D8
:1021F000656C657465206661696C6564202E0A00F3
:1022000010B58AB002F082F823A0FEF749F92948F8
:1022100001900420ADF8080027A008904FF48060DA
:1022200007908020099001A9264801F06BFE044622
:102230003CB102F045F924A0FEF732F901200AB0C2
:1022400010BD29A0FEF72CF9304801900520ADF80B
:1022500008002FA008904FF480600790802009901C
:1022600001A92E4801F04EFE044674B115480068DD
:1022700001F098FF10B12AA0FEF712F902F020F940
:102280002DA0FEF70DF90120D9E733A0FEF708F9DC
:1022900002F016F92046D2E74C4F535F5461736B3E
:1022A0004C6F636B28292053756363657373210D2D
:1022B0000A00000009200000484947485F4E414D90
:1022C00045000000DC0000204578616D706C655FA2
:1022D0005461736B4869206372656174652046615F
:1022E000696C6564210D0A004578616D706C655FED
:1022F0005461736B4869206372656174652053751E
:102300006363657373210D0A000000001D21000046
:102310004C4F575F4E414D4500000000E00000204B
:102320005461736B48692064656C657465206661EF
:10233000696C6564202E0A004578616D706C655F7C
:102340005461736B4C6F20637265617465204661E4
:10235000696C6564210D0A004578616D706C655F7C
:102360005461736B4C6F20637265617465205375A3
:102370006363657373210D0A000000002DE9F041CD
:1023800038A0FEF78DF808213A48006800F012FEE8
:10239000044620464060006000BF00BF41688142A3
:1023A00001D1012100E0002129B933A0FEF778F81E
:1023B0000120BDE8F08134A0FEF772F808212D4815
:1023C000006800F0F7FD054608212A48006800F083
:1023D000F1FD064608212748006800F0EBFD07469E
:1023E0002946204600F0D0FC3146284600F0CCFCBF
:1023F0002868A04202D03068A84202D12AA0FEF785
:102400004FF800BF3946206800F0BEFC00BF3868B6
:10241000B04202D129A0FEF743F82DA0FEF740F804
:1024200000BFD5E900010860D5E900104860002030
:102430006860286000BF2846FEF70AF86068B0426E
:1024400007D128A0FEF72CF80021072000F08AFB16
:1024500006E02AA0FEF724F80121072000F082FB05
:102460000020A6E7696E697469616C2E2E2E2E2EEF
:102470002E0A00008C000020696E697469616C206E
:102480006661696C65640A006E6F646520616464EE
:1024900020616E64207461696C206164642E2E2E4C
:1024A0002E2E2E0A00000000616464206E6F6465A9
:1024B00020737563636573730A00000061646420B0
:1024C0007461696C20737563636573730A0000003F
:1024D00064656C657465206E6F64652E2E2E2E2EDD
:1024E0002E0A000064656C657465206E6F6465205B
:1024F000737563636573730A0000000064656C653F
:102500007465206E6F6465206572726F720A0000D8
:102510000EB5012002AB234A002100904FF47A70DF
:1025200001F0ECFB012001AB1F4A01460090642042
:1025300001F0E4FB1DA0FDF7B3FFBDF8080001F0BA
:1025400063FC20A0FDF7ACFFC82001F0EBFDBDF857
:10255000080001F099FC21A0FDF7A2FFBDF80800DA
:1025600001F052FC4FF47A7001F0DCFDBDF8080078
:1025700001F00AFC1EA0FDF793FFBDF8040001F076
:1025800043FC21A0FDF78CFF4FF47A7001F0CAFDE7
:10259000BDF8040001F078FCBDF8040001F0F4FB84
:1025A00000200EBDD1450000214600006372656128
:1025B00074652054696D657231207375636365734A
:1025C000730A000073746172742054696D6572310E
:1025D000207375636573730A0000000073746F7075
:1025E0002054696D657231207375636573730A00D9
:1025F00064656C6574652054696D6572312073750E
:10260000636573730A000000737461727420546907
:102610006D6572320A00000002465018401E90425A
:1026200004D95018401E4B1E98437047481E22EA9A
:102630000000FAE74BF68030704710B502461446AA
:102640002046002305E001464960096000BF5B1C8D
:1026500008301B2BF7D310BD2DE9F04105460E467F
:102660002F46304600F004FC04461E2C02D9002000
:10267000BDE8F081042C00D80424201F07EBC00023
:10268000F6E710B502F074FF04460CB1204610BD09
:102690002046FCE700B50246FF23012A02D1FEF7DF
:1026A000C1FD0346184600BD00B5FEF7C5FD00BDDF
:1026B00010B504460B46012C02D0022C14D109E0BF
:1026C000012B03D10020FEF715FE02E00020FEF7EB
:1026D000F5FD0AE0012B03D10120FEF70BFE02E01D
:1026E0000120FEF7EBFD00E000BF00BF10BD00B50C
:1026F0000020FEF7B1FD0120FEF7AEFD00BD10B5D4
:1027000000F005F8FFF7F3FFFFF7CEFF10BD00B5AF
:10271000FEF70CFE00BD000070B504460D460CB976
:10272000064870BDFEF73FFD064620682840206041
:102730003046FEF740FD0020F3E70000061C0002D3
:10274000014609B90448704700200860081D406030
:10275000006000BF0020F6E7061C00022DE9F041F2
:1027600004460D4616460027FEF71DFD804606F07E
:10277000020030B12068284058B1206800EA0507FF
:1027800007E035B120682840A84202D1206800EA5D
:1027900005072FB106F0010010B12068B843206092
:1027A0004046FEF708FD3846BDE8F0812DE9F05FB0
:1027B0008146884616461F464FF0000AB9F1000FC1
:1027C00002D14D48BDE8F09FB8F1000F02D14A4850
:1027D000001FF7E708F0007010B14748801FF1E7CD
:1027E00006F0020010B106F0040028B926F0070038
:1027F00010B906F0060010B93F48801EE2E73F48D6
:10280000006810B13C48C01EDCE7FEF7CCFC8346F4
:10281000324641464846FFF7A1FF8246BAF1000F13
:1028200064D127B95846FEF7C6FC5046CAE734487B
:10283000008828B15846FEF7BEFC2F48401EC1E76D
:102840003048046804F13C0000F0CEFEA08820F07F
:102850000400A08004F13C05A08840F00800A0809E
:10286000C4F85C80266600BFD9F80400416869603E
:10287000286041680D60456000BF00BF7FB1781CD3
:1028800068B1A08840F04000A0803946204602F0A0
:10289000D1FB5846FEF78FFC01F0C2F808E0A08893
:1028A00020F04000A0805846FEF785FC01F0B8F803
:1028B000207900F0400060B1FEF775FC8346A088E7
:1028C00020F04000A0805846FEF775FC0A48401FE3
:1028D00078E7FEF768FC8346324641464846FFF7F4
:1028E0003DFF82465846FEF766FC02E05846FEF77A
:1028F00062FC504666E70000061C000298000020BB
:1029000020000020180000202DE9F04705460E4663
:102910000027B84615B93948BDE8F08706F00070C1
:1029200010B13648801FF7E7FEF73DFC8146286866
:1029300030432860281D4168814201D1012100E017
:102940000021002955D1A868A0F13C043FE0206C8B
:10295000A0F13C0794F8600000F0020010B1E06DB7
:10296000304050B994F8600000F0040070B3E06D9E
:1029700029680840E16D884228D14FF0010800BF66
:10298000D4E90F010860D4E90F10486000202064EA
:10299000E06300BFA08820F00800A080207900F04C
:1029A000400030B1204602F003FEA08820F0400035
:1029B000A080207900F0020040B9A08840F0040017
:1029C000A080E18804F13C0000F01AFE3C4604F1CE
:1029D0003C00291D8842BAD1B8F1010F05D1484603
:1029E000FEF7E9FB01F01CF806E04846FEF7E3FBC2
:1029F00002E04846FEF7DFFB00208DE7061C0002E0
:102A00002DE9F04105460027FF260A2D06DB294661
:102A10002EA0FDF745FD0120BDE8F081002449E02E
:102A2000314800EB04100078A84242D12E4800EB58
:102A30000410406828B929462CA0FDF731FD01207B
:102A4000EAE7294901EB041148688047074600BFBF
:102A5000254800EB0410407850B94FB9224800EBEC
:102A6000041000F108012DA0FDF71AFD002610E06A
:102A70001D4800EB0410407801280AD101261A48AD
:102A800000EB041000F108012A4802682AA0FDF7B3
:102A900007FD642001F046FB134800EB041040786A
:102AA000FF28D5D0104800EB04104078B042CFD1B9
:102AB00002E0641C0A2CB3D300BF0A2C01D1012010
:102AC000AAE70EB10120A7E70020A5E70D0A2049DB
:102AD0006E73706563744944203D205B25645D20FE
:102AE0004572722E0D0A0000F4000020496E7370CA
:102AF0006563744944203D205B25645D2045727206
:102B00002C496E737065637466756E6320697320FB
:102B10004E554C4C2E0D0A0D0A000000496E737084
:102B200065637420257320737563636573730D0A81
:102B30000D0A0000EC000020496E7370656374207C
:102B40002573206572726F722C67496E73706563AE
:102B500074457272436E74203D205B25645D0D0ADE
:102B60000D0A000070B505460E4600240A2D05DB4F
:102B700029460CA0FDF794FC012070BD00240AE05A
:102B80000F4800EB04100078A84203D10C4800EB7A
:102B900004104670641C0A2CF2D301D10120ECE72A
:102BA0000020EAE70D0A20496E737065637449449A
:102BB000203D205B25645D204572722E0D0A0000C9
:102BC000F400002010B58AB0242101A8FDF70AFE08
:102BD000094801904FF44070079008A00890092020
:102BE000ADF8080001A9084801F08CF904460CB1C1
:102BF0000AB010BD00BFFBE7652C0000496E737082
:102C000065637454736B0000F000002070B50546D6
:102C10000C462846FFF73EFD98B9322001F082FAB3
:102C20002846FFF737FD38B901212046FFF740FD60
:102C300006A0FDF735FC08E000212046FFF738FD2F
:102C400003E000212046FFF733FD70BD0D0A204B45
:102C500065792074657374206578616D706C65208A
:102C60000D0A0000002500201249086012A0FDF79F
:102C700017FC00240EE0E0B2FFF7C2FE054645B1A6
:102C80000C480068401C0B49086001210220FFF736
:102C90000FFD641C0A2CEEDB064801680CA0FDF752
:102CA000FFFB16A0FDF7FCFB03E001210846FFF740
:102CB000ADFFFAE7EC0000200D0A204C6F732049AD
:102CC0006E73706563742073746172742E0D0A00E4
:102CD000496E737065637420636F6D706C657465A5
:102CE000642C67496E7370656374457272436E74C9
:102CF000203D205B25645D0D0A0D0A000D0A204C65
:102D00006F73204B6579206578616D706C653A2032
:102D1000706C65617365207072657373207468658B
:102D200020557365724B6579206B6579200D0A001B
:102D300010B501F01FFD04460CB1012010BD0020AC
:102D4000FCE742684A600860426811604160704771
:102D500042684A600860426811604160704742689A
:102D60004A600860426811604160704742684A608A
:102D70000860426811604160704742684A600860BC
:102D8000426811604160704742684A60086042686A
:102D9000116041607047D0E900121160D0E9002154
:102DA00051600021416001607047D0E9001211605C
:102DB000D0E9002151600021416001607047D0E9F5
:102DC00000121160D0E900215160002141600160D2
:102DD0007047D0E900121160D0E900215160002154
:102DE00041600160704701464868884201D1012076
:102DF00070470020FCE701464868884201D1012065
:102E000070470020FCE701464868884201D1012054
:102E100070470020FCE701464868884201D1012044
:102E200070470020FCE74060006070474060006031
:102E3000704740600060704740600060704770B548
:102E400004460D4629462068FFF77BFF70BD70B52C
:102E500004460D4629462068FFF77AFF70BD70B51D
:102E600004460D4629462068FFF780FF70BD00002C
:102E7000014601F0004010B16FF0704070474C48BF
:102E80000840002847D001F0FE40F8B101F0E040D2
:102E900058B101F0804008B11E20EFE701F000506A
:102EA00008B11D20EAE71C20E8E701F0406030B1DE
:102EB00001F0006008B11B20E0E71A20DEE701F016
:102EC000007008B11920D9E71820D7E701F4700085
:102ED00080B101F4400030B101F4000008B11720C6
:102EE000CCE71620CAE701F4001008B11520C5E7A9
:102EF0001420C3E701F4402030B101F4002008B1F0
:102F00001320BBE71220B9E701F4003008B111200B
:102F1000B4E71020B2E701F47F4020B301F4704021
:102F200080B101F4404030B101F4004008B10F20FD
:102F3000A4E70E20A2E701F4005008B10D209DE7A0
:102F40000C209BE701F4406030B101F4006008B14F
:102F50000B2093E70A2091E701F4007008B10920E3
:102F60008CE708208AE701F0F00080B101F0C00092
:102F700030B101F0800008B107207FE706207DE72F
:102F800001F0200008B1052078E7042076E701F081
:102F90000C0030B101F0080008B103206EE70220F8
:102FA0006CE701F0020008B1012067E7002065E747
:102FB0000000FF7F2DE9F04105460C460026FEF794
:102FC000F2F8074600BF05B104B909E004F000407B
:102FD00000B105E02146284601F004FC064600BF8A
:102FE00000BF3846FEF7E7F83046BDE8F0812DE92E
:102FF000F05F80460F4614464FF00009CA46002590
:103000000026FEF7D0F8834600BFB8F1000F00D0CD
:1030100007B91BE0381900F1040909F0004000B1BC
:1030200014E04946404601F0DDFB05462819401EE4
:10303000611E20EA0106B54200D107E0A6EB050AB1
:103040004AF0804A46F804AC354600BF00BF5846F7
:10305000FEF7B1F82846BDE8F09F2DE9F047054698
:103060000C4601270026FEF79EF8814600BFB046B9
:1030700005B104B914E054F8046C06F0804010B1B6
:1030800026F08046A41BA4F110084146284601F012
:10309000D7FB07461FB92946404601F045FC00BF53
:1030A00000BF4846FEF787F83846BDE8F0872DE9AF
:1030B000F04704468846002500270026A94614B19B
:1030C000B8F1FF0F03D84FF0FF30BDE8F087FEF7EF
:1030D0006AF88246264634463660C6F8048004F113
:1030E0000800FFF7AAFA04F1E005281BA8EB00008E
:1030F0001038E8600020A86004F10800E968FFF7D4
:10310000ABFA8146B9F1000F05D15046FEF753F8EE
:103110004FF0FF30D9E700BF2946D9F80000FFF78C
:103120002CFE00BF04EB0800A0F11007002038605F
:103130007860B860F860BD601020F860F86840F012
:103140000040F860384601F079FC5046FEF733F84D
:103150000020BAE72DE9F04105462F46002600245D
:1031600015B90020BDE8F081FEF71DF8804607F193
:103170000806306820B13468206830600448206058
:103180004046FEF718F80CB90020EBE7201DE9E7F0
:10319000A55A5AA570B504460D46264604B105B990
:1031A00070BD3068011F2846FDF7FAFA00BFF7E747
:1031B0002DE9F04705460E462C46012705B116B904
:1031C0000120BDE8F087FDF7EEFF804600BF311F0C
:1031D00020460A46D0F800C0BCF1000F02D14FF0E3
:1031E000010C25E000F10C0CA2EB0C03D0F800C0A0
:1031F000B3FBFCF90CFB193CBCF1000F02D04FF003
:10320000010C15E0D0F800C0B3FBFCFCD0F8049032
:10321000CC4502D34FF0010C0AE0DFF83490D2F82D
:1032200000C0CC4502D04FF0010C01E04FF0000C83
:10323000BCF1000F00D004E0A0680860A160002786
:1032400000BF00BF4046FDF7B6FF3846B9E70000B3
:10325000A55A5AA52DE9F04706460F469046344632
:10326000002516B90120BDE8F087B8F1000F01D1A3
:103270000120F8E70C2F01D20120F4E7FDF793FFBE
:10328000824608F1070020F003002060A7F10C003F
:103290002168B0FBF1F06060606820B95046FDF72E
:1032A0008AFF0120DFE704F10C05A5604FF000095B
:1032B00005E02068284428602D6809F1010960684C
:1032C000401E4845F5D8002028605046FDF773FFA2
:1032D0000020C8E72DE9F041054615B91448BDE8BE
:1032E000F081FDF760FF07461248FFF784FD28B123
:1032F0003846FDF760FF0E48401CF0E70D48466871
:103300003046FFF752FDA6F108040020608001203E
:1033100020700020A082206104F10800FFF786FDE4
:10332000606828603846FDF746FF0020D7E70000B8
:10333000021D00027400002070B5054605EB450033
:103340001449096801EBC004FDF72DFF06460A2D5C
:1033500001D2207820B93046FDF72DFF0E4870BD10
:1033600004F10800FFF747FD08B1608828B1304636
:10337000FDF721FF08480830F1E704F1080107488C
:10338000FFF7E6FC002020703046FDF714FF002018
:10339000E5E7000070000020011D0002740000201D
:1033A0002DE9F04706460F4606EB460049490968F5
:1033B00001EBC005FDF7F7FE82460A2E01D2287800
:1033C00028B95046FDF7F7FE4348BDE8F08743486B
:1033D000006828B15046FDF7EEFE3F48001DF4E7B7
:1033E0003F480468688850B96888401C68802C6130
:1033F000E088A8825046FDF7DEFE0020E5E7286958
:10340000A04207D16888401C68805046FDF7D3FE73
:103410000020DAE72FB95046FDF7CDFE2E48C01C3C
:10342000D3E73048008820B1DFF8AC8008F1050808
:103430004AE004F13C0000F0D7F8A08820F0040036
:10344000A080656204F13C09A08840F00800A080DB
:103450002869C088E188884203DDE188286901F095
:103460006BFF494605F10800FFF7F1FC781C68B1D5
:10347000A08840F04000A0803946204601F0DAFDE7
:103480005046FDF798FE00F0CBFA08E0A08820F047
:103490004000A0805046FDF78EFE00F0C1FA207972
:1034A00000F0400070B1FDF77EFE8246A08820F05B
:1034B0004000A0805046FDF77EFEDFF81C8008F13A
:1034C000060805E0002080E75046FDF774FE00BFC7
:1034D00040467AE770000020011D0002980000209D
:1034E00018000020200000202DE9F041064606EBE0
:1034F00046003949096801EBC004FDF754FE8046D7
:103500000A2E01D2207828B94046FDF754FE3348F0
:10351000BDE8F0813248006828B14046FDF74BFE17
:103520002E48001DF4E72F480768608810B1206915
:10353000B84204D04046FDF73EFE2848E8E76088E0
:10354000401E80B2608020B14046FDF734FE00206E
:10355000DEE72069C088A18A884203D0A18A206959
:1035600001F0EAFE04F10800FFF745FC70BBE068DB
:10357000A0F13C05E068FFF718FCA88820F00800DF
:10358000A880287900F0400030B1284602F010F8F9
:10359000A88820F04000A880012060802561E8888C
:1035A000A08200206862287900F0020040B9A88853
:1035B00040F00400A880E98805F13C0000F020F804
:1035C0004046FDF7F8FD00F02BFA02E04046FDF71B
:1035D000F2FD00209CE7000070000020011D0002A9
:1035E000980000201800002000BFD0E900121160F0
:1035F000D0E90021516000214160016000BF7047A7
:1036000010B50A460649096801EBC20319684C68FF
:10361000446001604C682060486000BF00BF10BD7E
:1036200000000020014600200022074B1B6803EB2E
:10363000C1035A6801E0401C5268034B1B6803EB4E
:10364000C1039342F7D17047000000200021002001
:10365000014612E00B4A126802EBC1004268824246
:1036600001D1012200E000222AB90648006800EBDF
:10367000C10040687047481C01462029EAD3002059
:10368000F8E70000000000202DE9F84F81460C46C5
:1036900015469A460A9E15B91948BDE8F88F4FF6A7
:1036A000FB70864202DD16480938F6E704B116B908
:1036B0001348401CF1E7FDF776FD8046301D82B2CD
:1036C0006B462946204601F05BFA074627B1404683
:1036D000FDF771FD3846E0E700981430FFF7A9FBCD
:1036E00000981C30FFF7A5FB00982430FFF7A1FBE2
:1036F0000098C4814046FDF75EFD0020CDE7000044
:103700000C0600022DE9F0410646771E072F02D372
:103710002548BDE8F081FDF746FD804607EB4700F0
:1037200000EBC7002149096801EB8004A08818B9A3
:1037300000BF1D4D6D1D31E004F11C00FFF763FB60
:1037400018B900BF184DED1C28E004F11400FFF774
:103750005AFB18B900BF144DED1C1FE004F1240002
:10376000FFF751FB18B900BF0F4DED1C16E0E089C3
:10377000218A0844E188884203D000BF0A4DAD1D6C
:103780000CE00B4821680068FFF767FC054615B19F
:1037900000BF00BF02E00020A08000BF4046FDF750
:1037A0000AFD2846B5E70000050600027C0000205F
:1037B0008C0000202DE9FC5F80460F4691461E4696
:1037C00000200090A8F1010BBBF1070F02D3404885
:1037D000BDE8FC9F17B93E48401CF9E7B9F1000F5E
:1037E00002D13B48801CF3E72EB13A48006810B183
:1037F00037480A30ECE7FDF7D6FC01900BEB4B00A5
:1038000000EBCB003449096801EB8004A08820B9A3
:1038100000BF2F480E30009054E0208A50BB26B9DC
:1038200000BF2B480F3000904CE02C48008820B19E
:1038300000BF27480838009044E029480568324610
:1038400004F11C01284601F0EFF90198FDF7B3FCE3
:1038500000F0E6F8FDF7A7FC0190287900F04000A1
:1038600058B1A88820F04000A88000BF1848C01FA9
:10387000009027E0208A401E2082618922892068EA
:1038800001FB020ADAF8000038606089401C80B24F
:103890006081E188884201D10020608104F1140038
:1038A000FFF7B1FA50B904F1140001F0FFF90198E3
:1038B000FDF781FC00F0B4F8002089E7E089401CA6
:1038C000E08100BF0198FDF776FC009880E70000DA
:1038D0000E060002980000207C000020200000203E
:1038E000180000202DE9FC5F81460F4690461E46D9
:1038F00000200090A9F1010BBBF1070F02D3434850
:10390000BDE8FC9F17B94148401CF9E7B8F1000F2A
:1039100002D13E48801CF3E72EB13D48006810B14B
:103920003A480838ECE7FDF73EFC01900BEB4B0002
:1039300000EBCB003749096801EB8004A08820B96F
:1039400000BF3248C01C00905BE02089404504D293
:1039500000BF2E48001D009053E0E08950BB26B9FF
:1039600000BF2A48401D00904BE02B48008820B142
:1039700000BF26480B38009043E0284805683246CF
:1039800004F11401284601F04FF90198FDF713FCEA
:1039900000F046F8FDF707FC0190287900F04000A0
:1039A00058B1A88820F04000A88000BF17480A3806
:1039B000009026E0E089401EE081A18922892068EC
:1039C00001FB020ACAF80070A089401C80B2A081E5
:1039D000E188884201D10020A08104F11C00FFF79A
:1039E00012FA50B904F11C0001F060F90198FDF7DA
:1039F000E2FB00F015F8002082E7208A401C2082BC
:103A000000BF0198FDF7D7FB009879E71106000287
:103A1000980000207C0000202000002018000020DA
:103A200010B5FDF7C0FB0446FFF710FE3C380A490D
:103A30004860084600684968884208D007480088FE
:103A400028B92046FDF7B7FBFDF7B8FB10BD2046AF
:103A5000FDF7B1FB00BFF9E71800002020000020AF
:103A60002DE9F04105460E4616B91648BDE8F0812D
:103A70004FF6FE70854202DD1248801DF6E7FDF725
:103A800092FB80461048FFF7C6F928B14046FDF783
:103A900092FB0C48401CE9E70B4847683846FFF7A3
:103AA0008EF9A7F1080465800120207004F1080058
:103AB000FFF7C2F9606830604046FDF77CFB0020EC
:103AC000D4E70000020700028000002070B5054620
:103AD0001348006800EB0514FDF765FB06460A2D48
:103AE00001D2207820B93046FDF765FB0D4870BD46
:103AF00004F10800FFF78FF928B93046FDF75BFBAA
:103B000008480830F3E704F108010748FFF72EF9E9
:103B1000002020703046FDF74EFB0020E7E7000054
:103B20008800002001070002800000202DE9F047F6
:103B3000074688463848006800EB0715FDF733FB59
:103B400082460A2F01D2287828B95046FDF733FB68
:103B50003248BDE8F0876888002807DD6888401E85
:103B600068805046FDF727FB0020F2E7B8F1000F10
:103B700002D12A4EF61C49E02948006810B1274EB0
:103B8000361D43E02748008810B1244E761D3DE0E5
:103B90002548046804F13C00FFF726FDA08820F0CA
:103BA0000400A080A56104F13C09A08840F0080051
:103BB000A080494605F10800FFF751F908F101001E
:103BC00040B1A08840F04000A0804146204601F06E
:103BD00031FA03E0A08820F04000A0805046FDF7B5
:103BE000EAFAFFF71DFF207900F0400060B1FDF711
:103BF000DAFA8246A08820F04000A0805046FDF707
:103C0000DAFA064EB61D05E00020A2E75046FDF7A1
:103C1000D2FA00BF30469CE788000020010700026E
:103C20009800002020000020180000202DE9F0411D
:103C300006462A48006800EB06150A2E02D32848DB
:103C4000BDE8F081FDF7AFFA0746287820B938467D
:103C5000FDF7B1FA2248F3E768884FF6FE71884213
:103C600005D13846FDF7A7FA1D48C01DE8E705F164
:103C70000800FFF7D0F848BBE868A0F13C04E8680A
:103C8000FFF79DF8A08820F00800A080207900F0C0
:103C9000400030B1204601F08BFCA08820F04000AD
:103CA000A0800020A061207900F0020040B9A08827
:103CB00040F00400A080E18804F13C00FFF7A0FC84
:103CC0003846FDF778FAFFF7ABFE05E06888401C40
:103CD00068803846FDF76FFA0020B1E788000020C1
:103CE00001070002014908607047000094000020AD
:103CF00010B50024FCF76CFA204610BD2DE9F04702
:103D000005460E4617469846DDF8209015B91C4822
:103D1000BDE8F08726B1012E02D01948401CF7E714
:103D200017B91748401EF3E7B8F1000F02D1144845
:103D3000801CEDE7FDF737FA82461248006828B983
:103D40005046FDF738FA0E48C01CE1E70D480468FC
:103D50000C49206808605046FDF72DFAE76166714E
:103D60000020A071256165612060E060C4F81890B2
:103D7000012020712089A8F800000020C8E7000079
:103D8000010300020C0000202DE9F0410446002749
:103D90004FF6FE70844202DB1948BDE8F081FDF762
:103DA00002FA8046072094FBF0F100FB114086B236
:103DB0001448006800EB46152889A04204D040460C
:103DC000FDF7F9F90E48E8E7287920B1012809D074
:103DD00002280BD102E00A4F7F1C0AE0284601F0BE
:103DE00005F900BF284601F0E5F802E0044F093765
:103DF00000BF00BF4046FDF7DEF93846CDE70000C2
:103E000005030002080000202DE9F04104460027C8
:103E10004FF6FE70844202DB1948BDE8F081FDF7E1
:103E2000C2F98046072094FBF0F100FB114086B2F6
:103E30001448006800EB46152889A04204D040468B
:103E4000FDF7B9F90E48E8E7287920B1012809D033
:103E500002280BD102E00A4F7F1C0AE0284601F03D
:103E6000C5F800BF284600F0E3FF02E0044F093721
:103E700000BF00BF4046FDF79EF93846CDE7000081
:103E800005030002080000202DE9F0410446002748
:103E90004FF6FE70844202DB1848BDE8F081FDF762
:103EA00082F98046072094FBF0F100FB114086B2B6
:103EB0001348006800EB46152889A04204D040460C
:103EC000FDF779F90D48E8E7287920B1012805D0F8
:103ED00002280AD105E0094F7F1C09E0074F083787
:103EE00006E0284601F082F802E0044F093700BFDF
:103EF00000BF4046FDF75FF93846CEE705030002F4
:103F0000080000202DE9F04105460F4600263946FD
:103F1000284600F045F8064616B13046BDE8F08167
:103F2000286800EB800101EBC0001949096801EB2A
:103F3000C004FDF738F98046A08820F00200A08078
:103F4000A08840F00400A080E18804F13C00FFF765
:103F500057FBFFF77BFB3C380E4948600E48006872
:103F600088B10E48008870B90846006849688842E0
:103F700009D00A48008830B94046FDF71CF900F026
:103F8000D1FE0020CAE74046FDF715F90020C5E73D
:103F90001400002018000020500000202000002005
:103FA0002DE9F05F07460D464FF000094FF0FF3A4C
:103FB00017B95748BDE8F09F15B95548801FF9E774
:103FC000E86910B95248801EF4E7286810B95048D3
:103FD000C01EEFE7A8881F2802DD4D48001FE9E753
:103FE000A869B0F5205F02D949481930E2E7A8690D
:103FF00010B94FF43470A8610821A869FEF70CFBD2
:10400000A86110214FF49870FEF706FBA969884259
:1040100002D93F48401ECDE7FDF7C5F8834611E0C1
:104020003C484068A0F13C043A494868FEF7B3FEBA
:1040300004F13C013848FEF784FE3848E168006826
:10404000FFF70BF83348FEF7CEFE0028E8D03248E1
:10405000FEF7C9FE28B1DFF8B8A00AF10A0A00BFCE
:1040600051E02D484068A0F13C042B494868FEF718
:1040700092FE5846FDF79FF8D4F810900822274882
:10408000A9690068FEF7B3FF06465EB9FDF78BF835
:10409000834604F13C012048FEF753FEDFF880A080
:1040A00000BF30E032464846A96901F0D3FA8046A5
:1040B000C4F80080A868A062E968E1622969216308
:1040C00069696163E660A869A0600020A061E061A1
:1040D00060620220A080A088296A09B1802100E0E6
:1040E00000210843A080A888E080286860614FF024
:1040F000FF3020650020E065E869A063002060666D
:10410000C7F8009056E75846FDF755F8504651E776
:104110000702000240000020380000208C00002030
:104120000002000370B504461948006808B1194838
:1041300070BD1948008808B11848F9E714B900F0B3
:10414000DDF9F5E7FDF72FF805461549096801F196
:104150003C00FFF749FA12480068808820F004000C
:104160000F49096888800E490868214600F062FFFF
:104170000B480068808840F0200009490968888061
:104180002846FDF718F8FFF74BFC0020D0E70000A9
:10419000980000200D020003200000200E02000203
:1041A000180000202DE9F04106464FF0FF374D483A
:1041B0000068864202D14C48BDE8F0814B48006857
:1041C000864202D348480D38F6E7FCF7ECFF8046FC
:1041D00006EB860000EBC6004549096801EBC00408
:1041E000A588207900F0010018B13F4F0A3F00BFB9
:1041F00073E005F0100028B13E48008810B13E4F32
:1042000000BF6AE005F0040040B104F13C00FFF794
:10421000EBF9A08820F00400A08009E005F0080078
:1042200010B905F4005018B104F13C00FEF7B3FDDD
:1042300005F0600010B1204601F0BAF9A08820F026
:104240000200A080A08840F00100A0804FF0FF3065
:1042500020650020E065FFF7F9F93C382749486000
:10426000207900F0100038B304F13C012448FEF737
:10427000E6FD1E48006800EB800101EBC0001C4910
:10428000096801EBC0001D49086008460068066126
:10429000A088096888801949E0680968C8601749DA
:1042A000A06B096888630120A0804046FCF783FF6B
:1042B00000F038FD00207FE70120A08004F13C01E0
:1042C0001048FEF73EFD1048E1680068FEF7C5FEA5
:1042D0004046FCF770FF00206EE74046FCF76BFF9E
:1042E000384669E72800002014020002240000205C
:1042F00014000020200000200B0200031800002002
:1043000040000020380000208C00002010B5FCF791
:104310004AFF044604480088401C034908802046A0
:10432000FCF749FF10BD0000200000202DE9F041FE
:1043300005464FF0FF37072D02D92448BDE8F0812C
:1043400005EB850000EBC5002149096801EBC004BD
:10435000FCF729FF8046A68806F0010018B11B4F24
:10436000FF1C00BF2CE006F0020018B9174FBF1C5D
:1043700000BF25E0A08820F00200A080A08842F2C3
:104380002A410840B8B9A08840F00400A080E18824
:1043900004F13C00FFF734F90E48006830B14046A4
:1043A000FCF709FFFFF73CFB0020C7E7FFF74EF9DA
:1043B0003C38094948604046FCF7FDFE0020BDE757
:1043C0004046FCF7F8FE3846B8E700000702000256
:1043D0001400002050000020180000202DE9F041BA
:1043E00005464FF0FF372E480068854202D12D4820
:1043F000BDE8F0812C480068854202D129480D3083
:10440000F6E72A480068854202D326480D38EFE7D0
:1044100005EB850000EBC5002549096801EBC004E8
:10442000FCF7C1FE8046A68806F0010018B11D4FBA
:104430000A3F00BF2FE006F0020018B1194F0C3FF1
:1044400000BF28E006F0100028B11A48008810B11B
:10445000194F00BF1FE006F0040038B104F13C0022
:10446000FFF7C2F8A08820F00400A080A08840F0E8
:104470000200A080114800680069A84206D14046A9
:10448000FCF799FEFFF7CCFA0020B1E74046FCF7B5
:1044900092FE0020ACE74046FCF78DFE3846A7E7C9
:1044A00028000020140200022C000020240000201C
:1044B0001400002020000020150200031800002036
:1044C00010B5FCF770FE04460B48008800280DDD8F
:1044D00009480088401E084908800846008828B915
:1044E0002046FCF768FEFFF79BFA10BD2046FCF75C
:1044F00062FE00BFF9E700002000002070B5002434
:104500001C48006800691C490968884201D31B489F
:1045100070BDFCF748FE054616490968C888FFF7D4
:1045200081F80446012C17D91249096801F13C00B1
:10453000FEF731FC0F480068808840F004000D4908
:10454000096888800B4A1268D1880A4A126802F109
:104550003C00FFF755F805E02846FCF72CFE07481D
:104560000930D5E72846FCF726FEFFF759FA002068
:10457000CEE70000180000202400002007020002FF
:10458000014903C9704700005800002010B5FCF72E
:104590000AFE04460A480068401C09490860204693
:1045A000FCF709FE00F0D0FFFCF7FDFD04460448CF
:1045B0000068401E024908602046FCF7FCFD10BD63
:1045C00098000020704710B5FFF7E0FF10BD000015
:1045D00070B5054608480068401C07490860FFF7A9
:1045E000CFFF04460448016804A0FBF759FF2146A9
:1045F00007A0FBF755FF70BDE4000020675F7469FA
:104600006D6572636F756E74313D25640A0000003C
:104610007469636B5F6C617374313D256C750A005E
:1046200070B50546FFF7ACFF044609480068401C1A
:10463000074908600846016806A0FBF731FF2146DC
:1046400009A0FBF72DFF00210620FEF78BFA70BDB5
:10465000E8000020675F74696D6572636F756E7442
:10466000323D25640A0000007469636B5F6C6173FE
:1046700074323D256C750A000448007E00F010007D
:1046800018B90248007802490870704700100040CD
:10469000A000002030380A2801D2012070470020F5
:1046A0007047000000BF074A127E02F02002002A75
:1046B000F9D0044A12684FF6F07303431A40014BD5
:1046C0001A6070470010004010B5FEF731FB044639
:1046D0000CB1012010BDFDF7D4FFFEF710F8FEF776
:1046E00071FAFFF705FB00BFFEE700F03DF800BFE1
:1046F000FEE7000010B5102404E00548054941F824
:104700002400641CFF2CF8D9FFF75CFF10BD0000EB
:10471000EB460000A001002000BFFEE710B58AB004
:10472000242101A8FCF75EF80A4801904FF440707C
:10473000079009A008901F20ADF8080001A90948BA
:10474000FFF7E0FB044614B120460AB010BD00207C
:10475000FBE700001947000049646C65436F726510
:10476000303030002800002010B5FCF717FD04465B
:10477000204610BD10B500F0C7FA00F09DF90446C0
:104780000CB1204610BD1648007808B1FFF7B2FF03
:1047900000F006FD04460CB12046F3E700F0C6FA2F
:1047A00004460CB12046EDE700F098F904460CB140
:1047B0002046E7E700F01CFA04460CB12046E1E78A
:1047C00000F0E0FA04460CB12046DBE700F03AFFC7
:1047D000FFF7A4FF04460CB12046D3E70020D1E741
:1047E000245800002DE9F04107460E46002406F14A
:1047F000130020F003052946384600F06DF8044602
:1048000014B90020BDE8F08105F11400E16881428F
:1048100004D32A462146384600F020F92046FEF708
:10482000D8FA204600F00AF9E06840F00040E06065
:10483000E16821F0004000F061FD04F11000E1E7C3
:104840002DE9F84F05460C462E4605F1E008706844
:104850002844A0F1100A706847194FF000092B4650
:10486000524641462046009700F0B7F810B90120A3
:10487000BDE8F88FE06800F0004008B90120F7E7D4
:10488000E06820F0004000EB04092B465246414608
:104890004846009700F0A1F808B90120E8E7D9F8E8
:1048A0000800A04201D00120E2E7444512D0009761
:1048B0002B4652464146A06800F08FF808B9012007
:1048C000D6E7A068C16821F000410844A04201D0A9
:1048D0000120CDE70020CBE770B505460E46002449
:1048E000314605F10800FDF7B7FE044618E0002048
:1048F0006168084605E0C168B14200D370BD4168F7
:104900000846A042F7D105F108002146024602F10F
:10491000D0038B4201D1002301E001F108031C46C2
:10492000002CE4D10020E9E72DE9F04104460E46D1
:104930000027B846E16821F0004000F0C5FCE068BF
:1049400020F00040E060A06848B3A068C06800F0B4
:10495000004020BBA568204600F05EF8E86820F023
:1049600000404719F86800F0004028B93846FEF7C3
:1049700030FA384600F050F82846FEF72AFA06F1D9
:104980000800E968FDF768FE8046B8F1000F01D124
:10499000BDE8F08129464046FEF7EFF91BE0E068EC
:1049A00020F000400719F86800F0004028B93846A8
:1049B000FEF70FFA384600F02FF806F10800E1681C
:1049C000FDF74AFE8046B8F1000F00D1E0E721462E
:1049D0004046FEF7D2F900BFDAE730B50446039D42
:1049E000A14201D8944201D9002030BDE06800F016
:1049F000004038B120686040401C08B10020F4E756
:104A00000120F2E72068984202D32068A84201D32F
:104A10000020EAE70120E8E700218268D268C36845
:104A20001A448368DA60C268111882688A6000BF1D
:104A3000002202604260826000BF7047C143016093
:104A40000549096821B1044909680969416002E022
:104A50004FF0FF3141607047180000202DE9F0470A
:104A600080460D46164600240027A146AC19A560D5
:104A7000E868801BE060EE60E06820F00040071905
:104A8000BC60F86800F0004028B93846FEF7A1F98C
:104A90003846FFF7C1FF08F10800E168FDF7DCFDCB
:104AA0008146B9F1000F01D1BDE8F08721464846A3
:104AB000FEF763F900BFF7E710B50648064908603E
:104AC0004FF4205104480068FEF7F1FA04462046EE
:104AD00010BD0000040600208C00002070B51248B4
:104AE000FEF7A4F9F02111480068FEF763FA1049B7
:104AF00008600846006808B90E4870BD00240EE042
:104B000004EB44000A49096801EBC0056C60002011
:104B1000287005F108010448FEF799F9641C0A2C75
:104B2000EED30020E9E70000740000208C00002094
:104B300070000020001D000270B5002400254FF415
:104B4000807529460C480068FEF734FA0B49086066
:104B50000846006800B970BD0020044608E0074917
:104B6000096801EBC4004060006000BF601C04469F
:104B7000202CF4D300BFEEE78C00002000000020C2
:104B80002DE9F047064688461746994615480468B9
:104B9000002507E0A08818B9681CC8F8000003E0E9
:104BA0006D1C2C34072DF5D300BF072D02D10E4804
:104BB000BDE8F0872C212046FBF714FE06FB07F129
:104BC0000A480068FEF7F6F92060206810B9064828
:104BD000801EEDE7E68027810120A080C9F8004013
:104BE0000020E5E77C000020040600028C00002085
:104BF00010B54FF49A7109480068FEF7DBF90849CF
:104C000008600846006808B9064810BD4FF49A715C
:104C100003480068FBF7E6FD0020F6E78C00002063
:104C20007C000020010600022DE9F04104460D46FB
:104C300017464FF00008002604F13C00FEF7D4FCB4
:104C4000A08820F00400A08004F13C08A08840F473
:104C50000050A0802846FEF7D6F830B100BF41468C
:104C60002868FEF77CF800BF14E06868A0F13C06F5
:104C700007E0E088F188884200DA06E0306CA0F1B5
:104C80003C0606F13C00A842F3D100BF4146F06B60
:104C9000FEF765F8781C38B1A08840F04000A0808D
:104CA0003946204600F0C6F9BDE8F08170B50546EA
:104CB0006868A0F13C046868D0E900121160D0E98E
:104CC0000021516000214160016000BFA08820F4F4
:104CD0000050A080207900F0400030B1204600F064
:104CE00067FCA08820F04000A080207900F002003E
:104CF00040B9A08840F00400A080E18804F13C00A5
:104D0000FEF77EFC70BD00000820034908600348E0
:104D1000034908607047000024000020042E002092
:104D20009000002010B5FCF749FA10BD70B511488D
:104D3000FEF782F8A02110480068FEF73BF90F4902
:104D400008600846006808B90D4870BD00240CE0F2
:104D50000A48006800EB04156C600020287005F11B
:104D600008010448FEF77BF8641C0A2CF0D30020ED
:104D7000EBE70000800000208C000020880000206D
:104D8000000700022DE9F8430020224908604FF097
:104D9000E008414620480068FEF70CF9044614B9C3
:104DA0001E48BDE8F88341462046FBF71BFD1C4822
:104DB00004601C480460002020812546203401271F
:104DC00005E027812C602546781C87B22034072F08
:104DD000F7DB082264211448FEF73CFA064616B1B8
:104DE0000E48C01CDDE704200023104A0721009074
:104DF0001846FEF749FC064616B10848001DD0E7E4
:104E000000F06EF8064616B10448401DC9E70020C0
:104E1000C7E70000100000208C00002007030002FC
:104E2000080000200C000020A00500200400002045
:104E300010B50022002183793BB9437913B143793E
:104E4000022B02D14369C36001E00369C3600F4BC9
:104E500019680AE0CB68C468A34200D907E0C368B8
:104E6000CC681B1BC3600A4609680029F2D100BF49
:104E7000016019B1CB68C4681B1BCB6012B9034B2E
:104E8000186000E010600223037110BD10000020C4
:104E90000EB50020029000BF4FF0FF33042202A99C
:104EA0000D480068FEF786FC0446002CF4D10298F9
:104EB0000028F1D0029800680090029840680190A4
:104EC00006480299FEF774F900980028E4D0DDE95D
:104ED00000108847E0E7000004000020A005002043
:104EE00010B58AB0242101A8FBF77CFC0948019089
:104EF0004FF43470079008A008900020ADF8080027
:104F00008020099001A90748FEF7FCFF04462046CF
:104F10000AB010BD914E00005377745F5461736BFB
:104F2000000000002C00002070B51F48046835E028
:104F30001D49206808601D48FEF70CF905467DB143
:104F4000E0692860A06968600023042229461848A7
:104F50000068FEF7C7FC18B129461448FEF728F987
:104F6000607998B9204600F025F820894FF6F7714E
:104F7000884203DA2089C01D20810DE020890721A5
:104F800090FBF1F201FB1200208105E0A079401CAA
:104F9000A0712046FFF74CFF0348046814B1E06895
:104FA0000028C5D070BD000010000020A005002022
:104FB00004000020034909680160024908600021DB
:104FC000017170470C00002010B50748006848B117
:104FD00005480068C068401E03490968C86008B9F0
:104FE000FFF7A2FF002010BD1000002010B5024600
:104FF000002100200E4B186801E001460068904235
:10500000FBD103682BB10368DB68C46823440468E0
:10501000E36019B9064C0368236001E003680B6084
:1050200000230360012303710023837110BD00007E
:10503000100000202DE9F0470446884608F01F07BD
:105040004FEA581907B101E0A9F10109E06C00F03D
:10505000784040EA0900E06425488088074407F06A
:105060001F07E06C67F3DF60E0642148006800EB35
:10507000C7067068B04205D104F144013046FDF71F
:10508000DEFE33E07068A0F1440500BFE86C20F05C
:105090007840E16C21F0784188420CD8E06C20F037
:1050A0007840E96C21F07841401AE16C01F07841D8
:1050B0000843E0640CE0E86C20F07840E16C21F0FB
:1050C0007841401AE96C01F078410843E86406E051
:1050D000A86CA0F1440505F14400B042D6D100BF50
:1050E00004F1440105F14400FDF7A9FEBDE8F08795
:1050F000480000202DE9F041054605EB850000EB56
:10510000C5002349096801EBC004E06930B1666954
:1051100004F128000FC8B047206204E0666904F17A
:1051200028000FC8B047207900F0800050B1FCF78C
:105130003AF807460020174908803946206900F0F0
:1051400085F922E0FCF72FF8074600201149088076
:105150003846FCF730F8FFF7D9F8E06928B1E16983
:105160004868FEF763FD0020E061207900F004004C
:1051700038B104F13C00FEF737FAA08820F00400B3
:10518000A080FFF79DF9FEF74BFCBDE8F081000021
:105190001400002020000020FCF703F800BFFEE709
:1051A00070B540480068401C682100FB01F631469C
:1051B0003D480068FDF7FEFE3C490860084600686F
:1051C00008B93B4870BD314638480068FBF70AFB18
:1051D0003848FDF728FE3848FDF725FE3748FDF72B
:1051E00022FE002420E0012004EB840101EBC40135
:1051F0002E4A126802EBC101888004EB840000EBA8
:10520000C4002A49096801EBC000046104EB840072
:1052100000EBC400254A126802EBC00000F13C011B
:105220002548FDF70CFE641C072CDCD9244800211E
:10523000016041601B48006800EB800101EBC00089
:105240001A49096801EBC0001D490860084600685A
:105250000461112009688880202019490968C880E4
:10526000FFF76AFC4FF4807631460F480068FDF77F
:10527000A1FE05460DB90E48A4E731462846FBF7C6
:10528000B1FA1048056000200E498880002404E02F
:105290002846FDF7C8FD641C0835202CF8D30020F3
:1052A00090E70000240000208C0000201400002063
:1052B00000020003300000203800002040000020E1
:1052C00018000020480000200146094A12681069B1
:1052D000072800D97047074A126802B1FAE7064A60
:1052E00052F82020521A044B43F8202000BFF1E767
:1052F0001800002098000020042E002001460B4AD0
:10530000126802B970470A4A126802B1FAE7074AFE
:1053100012681069072800D9F4E7064A52F82020DD
:105320000A44044B43F8202000BFEBE7180000209C
:1053300098000020042E002070B504460D46207908
:1053400000F0040090B104F13C00FEF74DF9A08894
:1053500020F00400A080E580A08840F00400A08038
:10536000E18804F13C00FEF74BF900E0E58070BDF8
:105370002DE9F041002734498988481CC11700EB0A
:10538000D1614911A0EB41112F4A9180104600686C
:105390001146898800EBC1056868A84201D1BDE8C3
:1053A000F0816868A0F1440443E0A688E06C20F036
:1053B000784018B1E06C401EE0643EE004F1440027
:1053C000FDF7E9FC06F0080058B1A08820F00800BD
:1053D000A08004F13C00FDF7DEFC0020A0616062CB
:1053E00017E006F4806020B1A08820F48060A080DF
:1053F0000FE006F4005040B104F13C00FDF7CBFC97
:10540000A08820F40050A08003E0A08820F02000B5
:10541000A08006F0020048B9A08840F00400A080F7
:10542000E18804F13C00FEF7EBF801276868A0F181
:10543000440404F14400A842B7D100BF0FB1FEF705
:10544000EFFA00BFABE70000480000202DE9F04173
:1054500005460F4605EB850000EBC5003649096897
:1054600001EBC004A68806F0040040B104F13C0042
:10547000FEF7BAF8A08820F00400A0800DE042F208
:105480000800304048B104F13C00FDF784FC06F010
:10549000600010B1204600F08BF8A08820F00200D8
:1054A000A080A08840F00100A0804FF0FF30206570
:1054B0000020E065FEF7CAF83C38204948602079B2
:1054C00000F0100040B304F13C011D48FDF7B7FCAB
:1054D0001C48006800EB800101EBC0001649096818
:1054E00001EBC00015490860084600680561A08806
:1054F000096888801149E0680968C8600F49A06B95
:10550000096888630120A0803846FBF754FEFFF746
:1055100009FC0020BDE8F081207900F0010030B1E5
:105520003846FBF748FEFFF7FDFB0020F2E7384660
:10553000FBF741FE0020EDE71400002018000020DA
:10554000400000202400002010B50848D0E90030B9
:105550005A1C40F100000549C1E9002000F04CF858
:10556000FFF706FFFFF730FD10BD000058000020D8
:1055700010B500244BF680300B49086008460068DF
:10558000FEF7B0FB08480068401E4FF0E02148617C
:1055900070200649087000204FF0E0218861072044
:1055A0000861204610BD00009C00002023ED00E0B3
:1055B0002DE9F0410446E06CC70E0E48006800EB90
:1055C000C706A06CB0420ED0A06CA0F14405E86CF8
:1055D00020F07840E16C21F078410844E96C01F05A
:1055E00078410843E86404F14400FDF7D4FBBDE8CA
:1055F000F08100004800002010B50F4800680F49F6
:10560000096888420BD00D4800680B4908600846BD
:10561000C1880B4800880844401E07498880064816
:1056200081880748008880B2814204D10020024965
:105630000860FEF763FF10BD68000020180000201E
:10564000580000200020024908600A20C8807047E6
:105650006800002030B50446012304E04FF0CA354D
:1056600042F823505B1CB3EB910FF7D34FF0CC35CE
:1056700015605518A5F144004FF0043505604FF052
:10568000053545604FF0063585604FF00735C5603C
:105690004FF0083505614FF0093545614FF0103581
:1056A00085614FF01135C5610025056244624FF0F8
:1056B000013585626D00C5624FF0033505634FF01B
:1056C00012354563034D8563034DC5634FF0807507
:1056D000056430BD99510000F55000002DE9F843F4
:1056E00006460F46904699460024002515E0002303
:1056F0003022694617480068FEF75CF8044624B17A
:10570000214615A0FAF7CCFE08E01BA00099FAF795
:10571000C7FE6D1C0520FEF705FDE8E700BF02E0AF
:105720000120FEF7FFFC0B480068FDF7EBFF0028A7
:10573000F6D116A0FAF7B4FE052D04D100210220FF
:10574000FDF710FA03E001210220FDF70BFA00201B
:10575000BDE8F883AC00002072656376206D657348
:1057600073616765206661696C7572652C6572721C
:105770006F723A25780A000072656376206D657352
:10578000736167653A25730A0000000064656C6503
:10579000746520746865207175657565207375631F
:1057A00063657373210A00002DE9F04707468846B8
:1057B00091469A4600240025122616E004F1300096
:1057C000C1B2B01E0B4A1154641C00233246094971
:1057D00009480068FEF786F805461DB1294607A06E
:1057E000FAF75EFE0520FEF79DFC052CE6D30020AF
:1057F000BDE8F087B0000020AC00002073656E6447
:10580000206D657373616765206661696C7572658B
:105810002C6572726F723A25780A0000006CDC0207
:10582000E80300000030313233343536373839413F
:1058300042434445464030580030313233343536E7
:10584000373839616263646566403078000400006F
:1058500008000000000000000200010000103A747F
:1058600074003A7474003A74740000004578616DF5
:10587000706C655F53656D5461736B312074696D35
:10588000656F757420616E64207472792067657429
:105890002073656D20675F757353656D494420778C
:1058A00061697420666F72657665722E0A00000069
:1058B000D058000000000020A005000004010000F6
:1058C00070590000A0050020482E00006001000073
:1058D00001B000123474657374206973206D6573B0
:1058E00073616765207822FF230122455441534BA1
:1058F0001A011023711D364556454E542A022022A6
:1059000016544D53471A031023191C5453454D1A6E
:1059100004101B21172035555445581A05101B2912
:1059200015202659535449431A06101B112560357A
:10593000494D45521A0710237D232C4C49535F11C2
:105940001A08101BC51E303B5F4D522A09802213D6
:105950005A44100110232D020B10EB46040110A92C
:10596000181BC7110402FF4501FF01FF01C500001C
:020000040001F9
:10FFA80000008001100082FFFDFF58003AFFBFF3F8
:10FFB800FFFFFFFFFFFFFFFFFFFFFFFFFFFFFFFF49
:10FFC800FFFFFFFFFFFFFFFFFFFFFFFFFFFFFFFF39
:10FFD800FFFFFF00FFFFFFFF00FFFFFFC500C5FF9A
:10FFE800000000FF00000000FFFFFFFFFFFFFFFF12
:08FFF800FFFFFFFFFFFFFFFF09
:04000005000000C92E
:00000001FF
